{
	"contracts/SixentsVote.sol": {
		"SixentsVote": {
			"abi": [
				{
					"inputs": [
						{
							"internalType": "uint256",
							"name": "_endTime",
							"type": "uint256"
						}
					],
					"stateMutability": "nonpayable",
					"type": "constructor"
				},
				{
					"anonymous": false,
					"inputs": [
						{
							"indexed": true,
							"internalType": "address",
							"name": "voter",
							"type": "address"
						},
						{
							"indexed": false,
							"internalType": "uint8",
							"name": "proposal",
							"type": "uint8"
						}
					],
					"name": "Voted",
					"type": "event"
				},
				{
					"inputs": [],
					"name": "endTime",
					"outputs": [
						{
							"internalType": "uint256",
							"name": "",
							"type": "uint256"
						}
					],
					"stateMutability": "view",
					"type": "function"
				},
				{
					"inputs": [],
					"name": "proposalA",
					"outputs": [
						{
							"internalType": "uint256",
							"name": "",
							"type": "uint256"
						}
					],
					"stateMutability": "view",
					"type": "function"
				},
				{
					"inputs": [],
					"name": "proposalB",
					"outputs": [
						{
							"internalType": "uint256",
							"name": "",
							"type": "uint256"
						}
					],
					"stateMutability": "view",
					"type": "function"
				},
				{
					"inputs": [],
					"name": "proposalC",
					"outputs": [
						{
							"internalType": "uint256",
							"name": "",
							"type": "uint256"
						}
					],
					"stateMutability": "view",
					"type": "function"
				},
				{
					"inputs": [
						{
							"internalType": "uint8",
							"name": "_proposal",
							"type": "uint8"
						}
					],
					"name": "vote",
					"outputs": [],
					"stateMutability": "nonpayable",
					"type": "function"
				},
				{
					"inputs": [
						{
							"internalType": "address",
							"name": "",
							"type": "address"
						}
					],
					"name": "voted",
					"outputs": [
						{
							"internalType": "bool",
							"name": "",
							"type": "bool"
						}
					],
					"stateMutability": "view",
					"type": "function"
				},
				{
					"inputs": [],
					"name": "votes",
					"outputs": [
						{
							"internalType": "uint256",
							"name": "",
							"type": "uint256"
						}
					],
					"stateMutability": "view",
					"type": "function"
				}
			],
			"devdoc": {
				"kind": "dev",
				"methods": {},
				"version": 1
			},
			"evm": {
				"assembly": "    /* \"contracts/SixentsVote.sol\":103:2094  contract SixentsVote {\r... */\n  mstore(0x40, 0x80)\n    /* \"contracts/SixentsVote.sol\":745:806  constructor(uint256 _endTime) {\r... */\n  callvalue\n  dup1\n  iszero\n  tag_1\n  jumpi\n  0x00\n  dup1\n  revert\ntag_1:\n  pop\n  mload(0x40)\n  sub(codesize, bytecodeSize)\n  dup1\n  bytecodeSize\n  dup4\n  codecopy\n  dup2\n  dup2\n  add\n  0x40\n  mstore\n  dup2\n  add\n  swap1\n  tag_2\n  swap2\n  swap1\n  tag_3\n  jump\t// in\ntag_2:\n    /* \"contracts/SixentsVote.sol\":792:800  _endTime */\n  dup1\n    /* \"contracts/SixentsVote.sol\":782:789  endTime */\n  0x01\n    /* \"contracts/SixentsVote.sol\":782:800  endTime = _endTime */\n  dup2\n  swap1\n  sstore\n  pop\n    /* \"contracts/SixentsVote.sol\":745:806  constructor(uint256 _endTime) {\r... */\n  pop\n    /* \"contracts/SixentsVote.sol\":103:2094  contract SixentsVote {\r... */\n  jump(tag_6)\n    /* \"#utility.yul\":7:150   */\ntag_8:\n    /* \"#utility.yul\":64:69   */\n  0x00\n    /* \"#utility.yul\":95:101   */\n  dup2\n    /* \"#utility.yul\":89:102   */\n  mload\n    /* \"#utility.yul\":80:102   */\n  swap1\n  pop\n    /* \"#utility.yul\":111:144   */\n  tag_10\n    /* \"#utility.yul\":138:143   */\n  dup2\n    /* \"#utility.yul\":111:144   */\n  tag_11\n  jump\t// in\ntag_10:\n    /* \"#utility.yul\":7:150   */\n  swap3\n  swap2\n  pop\n  pop\n  jump\t// out\n    /* \"#utility.yul\":156:507   */\ntag_3:\n    /* \"#utility.yul\":226:232   */\n  0x00\n    /* \"#utility.yul\":275:277   */\n  0x20\n    /* \"#utility.yul\":263:272   */\n  dup3\n    /* \"#utility.yul\":254:261   */\n  dup5\n    /* \"#utility.yul\":250:273   */\n  sub\n    /* \"#utility.yul\":246:278   */\n  slt\n    /* \"#utility.yul\":243:362   */\n  iszero\n  tag_13\n  jumpi\n    /* \"#utility.yul\":281:360   */\n  tag_14\n  tag_15\n  jump\t// in\ntag_14:\n    /* \"#utility.yul\":243:362   */\ntag_13:\n    /* \"#utility.yul\":401:402   */\n  0x00\n    /* \"#utility.yul\":426:490   */\n  tag_16\n    /* \"#utility.yul\":482:489   */\n  dup5\n    /* \"#utility.yul\":473:479   */\n  dup3\n    /* \"#utility.yul\":462:471   */\n  dup6\n    /* \"#utility.yul\":458:480   */\n  add\n    /* \"#utility.yul\":426:490   */\n  tag_8\n  jump\t// in\ntag_16:\n    /* \"#utility.yul\":416:490   */\n  swap2\n  pop\n    /* \"#utility.yul\":372:500   */\n  pop\n    /* \"#utility.yul\":156:507   */\n  swap3\n  swap2\n  pop\n  pop\n  jump\t// out\n    /* \"#utility.yul\":594:671   */\ntag_19:\n    /* \"#utility.yul\":631:638   */\n  0x00\n    /* \"#utility.yul\":660:665   */\n  dup2\n    /* \"#utility.yul\":649:665   */\n  swap1\n  pop\n    /* \"#utility.yul\":594:671   */\n  swap2\n  swap1\n  pop\n  jump\t// out\n    /* \"#utility.yul\":800:917   */\ntag_15:\n    /* \"#utility.yul\":909:910   */\n  0x00\n    /* \"#utility.yul\":906:907   */\n  dup1\n    /* \"#utility.yul\":899:911   */\n  revert\n    /* \"#utility.yul\":923:1045   */\ntag_11:\n    /* \"#utility.yul\":996:1020   */\n  tag_25\n    /* \"#utility.yul\":1014:1019   */\n  dup2\n    /* \"#utility.yul\":996:1020   */\n  tag_19\n  jump\t// in\ntag_25:\n    /* \"#utility.yul\":989:994   */\n  dup2\n    /* \"#utility.yul\":986:1021   */\n  eq\n    /* \"#utility.yul\":976:1039   */\n  tag_26\n  jumpi\n    /* \"#utility.yul\":1035:1036   */\n  0x00\n    /* \"#utility.yul\":1032:1033   */\n  dup1\n    /* \"#utility.yul\":1025:1037   */\n  revert\n    /* \"#utility.yul\":976:1039   */\ntag_26:\n    /* \"#utility.yul\":923:1045   */\n  pop\n  jump\t// out\n    /* \"contracts/SixentsVote.sol\":103:2094  contract SixentsVote {\r... */\ntag_6:\n  dataSize(sub_0)\n  dup1\n  dataOffset(sub_0)\n  0x00\n  codecopy\n  0x00\n  return\nstop\n\nsub_0: assembly {\n        /* \"contracts/SixentsVote.sol\":103:2094  contract SixentsVote {\r... */\n      mstore(0x40, 0x80)\n      callvalue\n      dup1\n      iszero\n      tag_1\n      jumpi\n      0x00\n      dup1\n      revert\n    tag_1:\n      pop\n      jumpi(tag_2, lt(calldatasize, 0x04))\n      shr(0xe0, calldataload(0x00))\n      dup1\n      0xaec2ccae\n      gt\n      tag_10\n      jumpi\n      dup1\n      0xaec2ccae\n      eq\n      tag_6\n      jumpi\n      dup1\n      0xb3f98adc\n      eq\n      tag_7\n      jumpi\n      dup1\n      0xe168c3ec\n      eq\n      tag_8\n      jumpi\n      dup1\n      0xfc79c9d1\n      eq\n      tag_9\n      jumpi\n      jump(tag_2)\n    tag_10:\n      dup1\n      0x3197cbb6\n      eq\n      tag_3\n      jumpi\n      dup1\n      0x6bd4c024\n      eq\n      tag_4\n      jumpi\n      dup1\n      0x9a59dd93\n      eq\n      tag_5\n      jumpi\n    tag_2:\n      0x00\n      dup1\n      revert\n        /* \"contracts/SixentsVote.sol\":520:542  uint256 public endTime */\n    tag_3:\n      tag_11\n      tag_12\n      jump\t// in\n    tag_11:\n      mload(0x40)\n      tag_13\n      swap2\n      swap1\n      tag_14\n      jump\t// in\n    tag_13:\n      mload(0x40)\n      dup1\n      swap2\n      sub\n      swap1\n      return\n        /* \"contracts/SixentsVote.sol\":644:668  uint256 public proposalC */\n    tag_4:\n      tag_15\n      tag_16\n      jump\t// in\n    tag_15:\n      mload(0x40)\n      tag_17\n      swap2\n      swap1\n      tag_14\n      jump\t// in\n    tag_17:\n      mload(0x40)\n      dup1\n      swap2\n      sub\n      swap1\n      return\n        /* \"contracts/SixentsVote.sol\":586:610  uint256 public proposalA */\n    tag_5:\n      tag_18\n      tag_19\n      jump\t// in\n    tag_18:\n      mload(0x40)\n      tag_20\n      swap2\n      swap1\n      tag_14\n      jump\t// in\n    tag_20:\n      mload(0x40)\n      dup1\n      swap2\n      sub\n      swap1\n      return\n        /* \"contracts/SixentsVote.sol\":451:488  mapping(address => bool) public voted */\n    tag_6:\n      tag_21\n      0x04\n      dup1\n      calldatasize\n      sub\n      dup2\n      add\n      swap1\n      tag_22\n      swap2\n      swap1\n      tag_23\n      jump\t// in\n    tag_22:\n      tag_24\n      jump\t// in\n    tag_21:\n      mload(0x40)\n      tag_25\n      swap2\n      swap1\n      tag_26\n      jump\t// in\n    tag_25:\n      mload(0x40)\n      dup1\n      swap2\n      sub\n      swap1\n      return\n        /* \"contracts/SixentsVote.sol\":831:1925  function vote(uint8 _proposal) public {\r... */\n    tag_7:\n      tag_27\n      0x04\n      dup1\n      calldatasize\n      sub\n      dup2\n      add\n      swap1\n      tag_28\n      swap2\n      swap1\n      tag_29\n      jump\t// in\n    tag_28:\n      tag_30\n      jump\t// in\n    tag_27:\n      stop\n        /* \"contracts/SixentsVote.sol\":1991:2091  function votes() public view returns (uint256) {\r... */\n    tag_8:\n      tag_31\n      tag_32\n      jump\t// in\n    tag_31:\n      mload(0x40)\n      tag_33\n      swap2\n      swap1\n      tag_14\n      jump\t// in\n    tag_33:\n      mload(0x40)\n      dup1\n      swap2\n      sub\n      swap1\n      return\n        /* \"contracts/SixentsVote.sol\":615:639  uint256 public proposalB */\n    tag_9:\n      tag_34\n      tag_35\n      jump\t// in\n    tag_34:\n      mload(0x40)\n      tag_36\n      swap2\n      swap1\n      tag_14\n      jump\t// in\n    tag_36:\n      mload(0x40)\n      dup1\n      swap2\n      sub\n      swap1\n      return\n        /* \"contracts/SixentsVote.sol\":520:542  uint256 public endTime */\n    tag_12:\n      sload(0x01)\n      dup2\n      jump\t// out\n        /* \"contracts/SixentsVote.sol\":644:668  uint256 public proposalC */\n    tag_16:\n      sload(0x04)\n      dup2\n      jump\t// out\n        /* \"contracts/SixentsVote.sol\":586:610  uint256 public proposalA */\n    tag_19:\n      sload(0x02)\n      dup2\n      jump\t// out\n        /* \"contracts/SixentsVote.sol\":451:488  mapping(address => bool) public voted */\n    tag_24:\n      mstore(0x20, 0x00)\n      dup1\n      0x00\n      mstore\n      keccak256(0x00, 0x40)\n      0x00\n      swap2\n      pop\n      sload\n      swap1\n      0x0100\n      exp\n      swap1\n      div\n      0xff\n      and\n      dup2\n      jump\t// out\n        /* \"contracts/SixentsVote.sol\":831:1925  function vote(uint8 _proposal) public {\r... */\n    tag_30:\n        /* \"contracts/SixentsVote.sol\":1037:1044  endTime */\n      sload(0x01)\n        /* \"contracts/SixentsVote.sol\":1019:1034  block.timestamp */\n      timestamp\n        /* \"contracts/SixentsVote.sol\":1019:1044  block.timestamp < endTime */\n      lt\n        /* \"contracts/SixentsVote.sol\":1011:1062  require(block.timestamp < endTime, 'Vote expired.') */\n      tag_38\n      jumpi\n      mload(0x40)\n      0x08c379a000000000000000000000000000000000000000000000000000000000\n      dup2\n      mstore\n      0x04\n      add\n      tag_39\n      swap1\n      tag_40\n      jump\t// in\n    tag_39:\n      mload(0x40)\n      dup1\n      swap2\n      sub\n      swap1\n      revert\n    tag_38:\n        /* \"contracts/SixentsVote.sol\":1136:1137  1 */\n      0x01\n        /* \"contracts/SixentsVote.sol\":1123:1132  _proposal */\n      dup2\n        /* \"contracts/SixentsVote.sol\":1123:1137  _proposal >= 1 */\n      0xff\n      and\n      lt\n      iszero\n        /* \"contracts/SixentsVote.sol\":1123:1155  _proposal >= 1 && _proposal <= 3 */\n      dup1\n      iszero\n      tag_41\n      jumpi\n      pop\n        /* \"contracts/SixentsVote.sol\":1154:1155  3 */\n      0x03\n        /* \"contracts/SixentsVote.sol\":1141:1150  _proposal */\n      dup2\n        /* \"contracts/SixentsVote.sol\":1141:1155  _proposal <= 3 */\n      0xff\n      and\n      gt\n      iszero\n        /* \"contracts/SixentsVote.sol\":1123:1155  _proposal >= 1 && _proposal <= 3 */\n    tag_41:\n        /* \"contracts/SixentsVote.sol\":1115:1177  require(_proposal >= 1 && _proposal <= 3, 'Invalid proposal.') */\n      tag_42\n      jumpi\n      mload(0x40)\n      0x08c379a000000000000000000000000000000000000000000000000000000000\n      dup2\n      mstore\n      0x04\n      add\n      tag_43\n      swap1\n      tag_44\n      jump\t// in\n    tag_43:\n      mload(0x40)\n      dup1\n      swap2\n      sub\n      swap1\n      revert\n    tag_42:\n        /* \"contracts/SixentsVote.sol\":1229:1234  voted */\n      0x00\n        /* \"contracts/SixentsVote.sol\":1229:1246  voted[msg.sender] */\n      dup1\n        /* \"contracts/SixentsVote.sol\":1235:1245  msg.sender */\n      caller\n        /* \"contracts/SixentsVote.sol\":1229:1246  voted[msg.sender] */\n      0xffffffffffffffffffffffffffffffffffffffff\n      and\n      0xffffffffffffffffffffffffffffffffffffffff\n      and\n      dup2\n      mstore\n      0x20\n      add\n      swap1\n      dup2\n      mstore\n      0x20\n      add\n      0x00\n      keccak256\n      0x00\n      swap1\n      sload\n      swap1\n      0x0100\n      exp\n      swap1\n      div\n      0xff\n      and\n        /* \"contracts/SixentsVote.sol\":1228:1246  !voted[msg.sender] */\n      iszero\n        /* \"contracts/SixentsVote.sol\":1220:1269  require(!voted[msg.sender], 'Cannot vote again.') */\n      tag_45\n      jumpi\n      mload(0x40)\n      0x08c379a000000000000000000000000000000000000000000000000000000000\n      dup2\n      mstore\n      0x04\n      add\n      tag_46\n      swap1\n      tag_47\n      jump\t// in\n    tag_46:\n      mload(0x40)\n      dup1\n      swap2\n      sub\n      swap1\n      revert\n    tag_45:\n        /* \"contracts/SixentsVote.sol\":1331:1335  true */\n      0x01\n        /* \"contracts/SixentsVote.sol\":1311:1316  voted */\n      0x00\n        /* \"contracts/SixentsVote.sol\":1311:1328  voted[msg.sender] */\n      dup1\n        /* \"contracts/SixentsVote.sol\":1317:1327  msg.sender */\n      caller\n        /* \"contracts/SixentsVote.sol\":1311:1328  voted[msg.sender] */\n      0xffffffffffffffffffffffffffffffffffffffff\n      and\n      0xffffffffffffffffffffffffffffffffffffffff\n      and\n      dup2\n      mstore\n      0x20\n      add\n      swap1\n      dup2\n      mstore\n      0x20\n      add\n      0x00\n      keccak256\n      0x00\n        /* \"contracts/SixentsVote.sol\":1311:1335  voted[msg.sender] = true */\n      0x0100\n      exp\n      dup2\n      sload\n      dup2\n      0xff\n      mul\n      not\n      and\n      swap1\n      dup4\n      iszero\n      iszero\n      mul\n      or\n      swap1\n      sstore\n      pop\n        /* \"contracts/SixentsVote.sol\":1400:1401  1 */\n      0x01\n        /* \"contracts/SixentsVote.sol\":1387:1396  _proposal */\n      dup2\n        /* \"contracts/SixentsVote.sol\":1387:1401  _proposal == 1 */\n      0xff\n      and\n      eq\n        /* \"contracts/SixentsVote.sol\":1383:1539  if (_proposal == 1) {\r... */\n      iszero\n      tag_48\n      jumpi\n        /* \"contracts/SixentsVote.sol\":1412:1421  proposalA */\n      0x02\n      0x00\n        /* \"contracts/SixentsVote.sol\":1412:1423  proposalA++ */\n      dup2\n      sload\n      dup1\n      swap3\n      swap2\n      swap1\n      tag_49\n      swap1\n      tag_50\n      jump\t// in\n    tag_49:\n      swap2\n      swap1\n      pop\n      sstore\n      pop\n        /* \"contracts/SixentsVote.sol\":1383:1539  if (_proposal == 1) {\r... */\n      jump(tag_51)\n    tag_48:\n        /* \"contracts/SixentsVote.sol\":1454:1455  2 */\n      0x02\n        /* \"contracts/SixentsVote.sol\":1441:1450  _proposal */\n      dup2\n        /* \"contracts/SixentsVote.sol\":1441:1455  _proposal == 2 */\n      0xff\n      and\n      eq\n        /* \"contracts/SixentsVote.sol\":1437:1539  if (_proposal == 2) {\r... */\n      iszero\n      tag_52\n      jumpi\n        /* \"contracts/SixentsVote.sol\":1466:1475  proposalB */\n      0x03\n      0x00\n        /* \"contracts/SixentsVote.sol\":1466:1477  proposalB++ */\n      dup2\n      sload\n      dup1\n      swap3\n      swap2\n      swap1\n      tag_53\n      swap1\n      tag_50\n      jump\t// in\n    tag_53:\n      swap2\n      swap1\n      pop\n      sstore\n      pop\n        /* \"contracts/SixentsVote.sol\":1437:1539  if (_proposal == 2) {\r... */\n      jump(tag_54)\n    tag_52:\n        /* \"contracts/SixentsVote.sol\":1508:1509  3 */\n      0x03\n        /* \"contracts/SixentsVote.sol\":1495:1504  _proposal */\n      dup2\n        /* \"contracts/SixentsVote.sol\":1495:1509  _proposal == 3 */\n      0xff\n      and\n      eq\n        /* \"contracts/SixentsVote.sol\":1491:1539  if (_proposal == 3) {\r... */\n      iszero\n      tag_55\n      jumpi\n        /* \"contracts/SixentsVote.sol\":1520:1529  proposalC */\n      0x04\n      0x00\n        /* \"contracts/SixentsVote.sol\":1520:1531  proposalC++ */\n      dup2\n      sload\n      dup1\n      swap3\n      swap2\n      swap1\n      tag_56\n      swap1\n      tag_50\n      jump\t// in\n    tag_56:\n      swap2\n      swap1\n      pop\n      sstore\n      pop\n        /* \"contracts/SixentsVote.sol\":1491:1539  if (_proposal == 3) {\r... */\n    tag_55:\n        /* \"contracts/SixentsVote.sol\":1437:1539  if (_proposal == 2) {\r... */\n    tag_54:\n        /* \"contracts/SixentsVote.sol\":1383:1539  if (_proposal == 1) {\r... */\n    tag_51:\n        /* \"contracts/SixentsVote.sol\":1730:1740  msg.sender */\n      caller\n        /* \"contracts/SixentsVote.sol\":1724:1752  Voted(msg.sender, _proposal) */\n      0xffffffffffffffffffffffffffffffffffffffff\n      and\n      0x14075e33dffdc00c1fcaf75d0f86d667170be57fb566b12b41b499e5fa53b125\n        /* \"contracts/SixentsVote.sol\":1742:1751  _proposal */\n      dup3\n        /* \"contracts/SixentsVote.sol\":1724:1752  Voted(msg.sender, _proposal) */\n      mload(0x40)\n      tag_57\n      swap2\n      swap1\n      tag_58\n      jump\t// in\n    tag_57:\n      mload(0x40)\n      dup1\n      swap2\n      sub\n      swap1\n      log2\n        /* \"contracts/SixentsVote.sol\":831:1925  function vote(uint8 _proposal) public {\r... */\n      pop\n      jump\t// out\n        /* \"contracts/SixentsVote.sol\":1991:2091  function votes() public view returns (uint256) {\r... */\n    tag_32:\n        /* \"contracts/SixentsVote.sol\":2029:2036  uint256 */\n      0x00\n        /* \"contracts/SixentsVote.sol\":2076:2085  proposalC */\n      sload(0x04)\n        /* \"contracts/SixentsVote.sol\":2064:2073  proposalB */\n      sload(0x03)\n        /* \"contracts/SixentsVote.sol\":2052:2061  proposalA */\n      sload(0x02)\n        /* \"contracts/SixentsVote.sol\":2052:2073  proposalA + proposalB */\n      tag_60\n      swap2\n      swap1\n      tag_61\n      jump\t// in\n    tag_60:\n        /* \"contracts/SixentsVote.sol\":2052:2085  proposalA + proposalB + proposalC */\n      tag_62\n      swap2\n      swap1\n      tag_61\n      jump\t// in\n    tag_62:\n        /* \"contracts/SixentsVote.sol\":2045:2085  return proposalA + proposalB + proposalC */\n      swap1\n      pop\n        /* \"contracts/SixentsVote.sol\":1991:2091  function votes() public view returns (uint256) {\r... */\n      swap1\n      jump\t// out\n        /* \"contracts/SixentsVote.sol\":615:639  uint256 public proposalB */\n    tag_35:\n      sload(0x03)\n      dup2\n      jump\t// out\n        /* \"#utility.yul\":7:146   */\n    tag_64:\n        /* \"#utility.yul\":53:58   */\n      0x00\n        /* \"#utility.yul\":91:97   */\n      dup2\n        /* \"#utility.yul\":78:98   */\n      calldataload\n        /* \"#utility.yul\":69:98   */\n      swap1\n      pop\n        /* \"#utility.yul\":107:140   */\n      tag_66\n        /* \"#utility.yul\":134:139   */\n      dup2\n        /* \"#utility.yul\":107:140   */\n      tag_67\n      jump\t// in\n    tag_66:\n        /* \"#utility.yul\":7:146   */\n      swap3\n      swap2\n      pop\n      pop\n      jump\t// out\n        /* \"#utility.yul\":152:287   */\n    tag_68:\n        /* \"#utility.yul\":196:201   */\n      0x00\n        /* \"#utility.yul\":234:240   */\n      dup2\n        /* \"#utility.yul\":221:241   */\n      calldataload\n        /* \"#utility.yul\":212:241   */\n      swap1\n      pop\n        /* \"#utility.yul\":250:281   */\n      tag_70\n        /* \"#utility.yul\":275:280   */\n      dup2\n        /* \"#utility.yul\":250:281   */\n      tag_71\n      jump\t// in\n    tag_70:\n        /* \"#utility.yul\":152:287   */\n      swap3\n      swap2\n      pop\n      pop\n      jump\t// out\n        /* \"#utility.yul\":293:622   */\n    tag_23:\n        /* \"#utility.yul\":352:358   */\n      0x00\n        /* \"#utility.yul\":401:403   */\n      0x20\n        /* \"#utility.yul\":389:398   */\n      dup3\n        /* \"#utility.yul\":380:387   */\n      dup5\n        /* \"#utility.yul\":376:399   */\n      sub\n        /* \"#utility.yul\":372:404   */\n      slt\n        /* \"#utility.yul\":369:488   */\n      iszero\n      tag_73\n      jumpi\n        /* \"#utility.yul\":407:486   */\n      tag_74\n      tag_75\n      jump\t// in\n    tag_74:\n        /* \"#utility.yul\":369:488   */\n    tag_73:\n        /* \"#utility.yul\":527:528   */\n      0x00\n        /* \"#utility.yul\":552:605   */\n      tag_76\n        /* \"#utility.yul\":597:604   */\n      dup5\n        /* \"#utility.yul\":588:594   */\n      dup3\n        /* \"#utility.yul\":577:586   */\n      dup6\n        /* \"#utility.yul\":573:595   */\n      add\n        /* \"#utility.yul\":552:605   */\n      tag_64\n      jump\t// in\n    tag_76:\n        /* \"#utility.yul\":542:605   */\n      swap2\n      pop\n        /* \"#utility.yul\":498:615   */\n      pop\n        /* \"#utility.yul\":293:622   */\n      swap3\n      swap2\n      pop\n      pop\n      jump\t// out\n        /* \"#utility.yul\":628:953   */\n    tag_29:\n        /* \"#utility.yul\":685:691   */\n      0x00\n        /* \"#utility.yul\":734:736   */\n      0x20\n        /* \"#utility.yul\":722:731   */\n      dup3\n        /* \"#utility.yul\":713:720   */\n      dup5\n        /* \"#utility.yul\":709:732   */\n      sub\n        /* \"#utility.yul\":705:737   */\n      slt\n        /* \"#utility.yul\":702:821   */\n      iszero\n      tag_78\n      jumpi\n        /* \"#utility.yul\":740:819   */\n      tag_79\n      tag_75\n      jump\t// in\n    tag_79:\n        /* \"#utility.yul\":702:821   */\n    tag_78:\n        /* \"#utility.yul\":860:861   */\n      0x00\n        /* \"#utility.yul\":885:936   */\n      tag_80\n        /* \"#utility.yul\":928:935   */\n      dup5\n        /* \"#utility.yul\":919:925   */\n      dup3\n        /* \"#utility.yul\":908:917   */\n      dup6\n        /* \"#utility.yul\":904:926   */\n      add\n        /* \"#utility.yul\":885:936   */\n      tag_68\n      jump\t// in\n    tag_80:\n        /* \"#utility.yul\":875:936   */\n      swap2\n      pop\n        /* \"#utility.yul\":831:946   */\n      pop\n        /* \"#utility.yul\":628:953   */\n      swap3\n      swap2\n      pop\n      pop\n      jump\t// out\n        /* \"#utility.yul\":959:1068   */\n    tag_81:\n        /* \"#utility.yul\":1040:1061   */\n      tag_83\n        /* \"#utility.yul\":1055:1060   */\n      dup2\n        /* \"#utility.yul\":1040:1061   */\n      tag_84\n      jump\t// in\n    tag_83:\n        /* \"#utility.yul\":1035:1038   */\n      dup3\n        /* \"#utility.yul\":1028:1062   */\n      mstore\n        /* \"#utility.yul\":959:1068   */\n      pop\n      pop\n      jump\t// out\n        /* \"#utility.yul\":1074:1440   */\n    tag_85:\n        /* \"#utility.yul\":1216:1219   */\n      0x00\n        /* \"#utility.yul\":1237:1304   */\n      tag_87\n        /* \"#utility.yul\":1301:1303   */\n      0x11\n        /* \"#utility.yul\":1296:1299   */\n      dup4\n        /* \"#utility.yul\":1237:1304   */\n      tag_88\n      jump\t// in\n    tag_87:\n        /* \"#utility.yul\":1230:1304   */\n      swap2\n      pop\n        /* \"#utility.yul\":1313:1406   */\n      tag_89\n        /* \"#utility.yul\":1402:1405   */\n      dup3\n        /* \"#utility.yul\":1313:1406   */\n      tag_90\n      jump\t// in\n    tag_89:\n        /* \"#utility.yul\":1431:1433   */\n      0x20\n        /* \"#utility.yul\":1426:1429   */\n      dup3\n        /* \"#utility.yul\":1422:1434   */\n      add\n        /* \"#utility.yul\":1415:1434   */\n      swap1\n      pop\n        /* \"#utility.yul\":1074:1440   */\n      swap2\n      swap1\n      pop\n      jump\t// out\n        /* \"#utility.yul\":1446:1812   */\n    tag_91:\n        /* \"#utility.yul\":1588:1591   */\n      0x00\n        /* \"#utility.yul\":1609:1676   */\n      tag_93\n        /* \"#utility.yul\":1673:1675   */\n      0x12\n        /* \"#utility.yul\":1668:1671   */\n      dup4\n        /* \"#utility.yul\":1609:1676   */\n      tag_88\n      jump\t// in\n    tag_93:\n        /* \"#utility.yul\":1602:1676   */\n      swap2\n      pop\n        /* \"#utility.yul\":1685:1778   */\n      tag_94\n        /* \"#utility.yul\":1774:1777   */\n      dup3\n        /* \"#utility.yul\":1685:1778   */\n      tag_95\n      jump\t// in\n    tag_94:\n        /* \"#utility.yul\":1803:1805   */\n      0x20\n        /* \"#utility.yul\":1798:1801   */\n      dup3\n        /* \"#utility.yul\":1794:1806   */\n      add\n        /* \"#utility.yul\":1787:1806   */\n      swap1\n      pop\n        /* \"#utility.yul\":1446:1812   */\n      swap2\n      swap1\n      pop\n      jump\t// out\n        /* \"#utility.yul\":1818:2184   */\n    tag_96:\n        /* \"#utility.yul\":1960:1963   */\n      0x00\n        /* \"#utility.yul\":1981:2048   */\n      tag_98\n        /* \"#utility.yul\":2045:2047   */\n      0x0d\n        /* \"#utility.yul\":2040:2043   */\n      dup4\n        /* \"#utility.yul\":1981:2048   */\n      tag_88\n      jump\t// in\n    tag_98:\n        /* \"#utility.yul\":1974:2048   */\n      swap2\n      pop\n        /* \"#utility.yul\":2057:2150   */\n      tag_99\n        /* \"#utility.yul\":2146:2149   */\n      dup3\n        /* \"#utility.yul\":2057:2150   */\n      tag_100\n      jump\t// in\n    tag_99:\n        /* \"#utility.yul\":2175:2177   */\n      0x20\n        /* \"#utility.yul\":2170:2173   */\n      dup3\n        /* \"#utility.yul\":2166:2178   */\n      add\n        /* \"#utility.yul\":2159:2178   */\n      swap1\n      pop\n        /* \"#utility.yul\":1818:2184   */\n      swap2\n      swap1\n      pop\n      jump\t// out\n        /* \"#utility.yul\":2190:2308   */\n    tag_101:\n        /* \"#utility.yul\":2277:2301   */\n      tag_103\n        /* \"#utility.yul\":2295:2300   */\n      dup2\n        /* \"#utility.yul\":2277:2301   */\n      tag_104\n      jump\t// in\n    tag_103:\n        /* \"#utility.yul\":2272:2275   */\n      dup3\n        /* \"#utility.yul\":2265:2302   */\n      mstore\n        /* \"#utility.yul\":2190:2308   */\n      pop\n      pop\n      jump\t// out\n        /* \"#utility.yul\":2314:2426   */\n    tag_105:\n        /* \"#utility.yul\":2397:2419   */\n      tag_107\n        /* \"#utility.yul\":2413:2418   */\n      dup2\n        /* \"#utility.yul\":2397:2419   */\n      tag_108\n      jump\t// in\n    tag_107:\n        /* \"#utility.yul\":2392:2395   */\n      dup3\n        /* \"#utility.yul\":2385:2420   */\n      mstore\n        /* \"#utility.yul\":2314:2426   */\n      pop\n      pop\n      jump\t// out\n        /* \"#utility.yul\":2432:2642   */\n    tag_26:\n        /* \"#utility.yul\":2519:2523   */\n      0x00\n        /* \"#utility.yul\":2557:2559   */\n      0x20\n        /* \"#utility.yul\":2546:2555   */\n      dup3\n        /* \"#utility.yul\":2542:2560   */\n      add\n        /* \"#utility.yul\":2534:2560   */\n      swap1\n      pop\n        /* \"#utility.yul\":2570:2635   */\n      tag_110\n        /* \"#utility.yul\":2632:2633   */\n      0x00\n        /* \"#utility.yul\":2621:2630   */\n      dup4\n        /* \"#utility.yul\":2617:2634   */\n      add\n        /* \"#utility.yul\":2608:2614   */\n      dup5\n        /* \"#utility.yul\":2570:2635   */\n      tag_81\n      jump\t// in\n    tag_110:\n        /* \"#utility.yul\":2432:2642   */\n      swap3\n      swap2\n      pop\n      pop\n      jump\t// out\n        /* \"#utility.yul\":2648:3067   */\n    tag_44:\n        /* \"#utility.yul\":2814:2818   */\n      0x00\n        /* \"#utility.yul\":2852:2854   */\n      0x20\n        /* \"#utility.yul\":2841:2850   */\n      dup3\n        /* \"#utility.yul\":2837:2855   */\n      add\n        /* \"#utility.yul\":2829:2855   */\n      swap1\n      pop\n        /* \"#utility.yul\":2901:2910   */\n      dup2\n        /* \"#utility.yul\":2895:2899   */\n      dup2\n        /* \"#utility.yul\":2891:2911   */\n      sub\n        /* \"#utility.yul\":2887:2888   */\n      0x00\n        /* \"#utility.yul\":2876:2885   */\n      dup4\n        /* \"#utility.yul\":2872:2889   */\n      add\n        /* \"#utility.yul\":2865:2912   */\n      mstore\n        /* \"#utility.yul\":2929:3060   */\n      tag_112\n        /* \"#utility.yul\":3055:3059   */\n      dup2\n        /* \"#utility.yul\":2929:3060   */\n      tag_85\n      jump\t// in\n    tag_112:\n        /* \"#utility.yul\":2921:3060   */\n      swap1\n      pop\n        /* \"#utility.yul\":2648:3067   */\n      swap2\n      swap1\n      pop\n      jump\t// out\n        /* \"#utility.yul\":3073:3492   */\n    tag_47:\n        /* \"#utility.yul\":3239:3243   */\n      0x00\n        /* \"#utility.yul\":3277:3279   */\n      0x20\n        /* \"#utility.yul\":3266:3275   */\n      dup3\n        /* \"#utility.yul\":3262:3280   */\n      add\n        /* \"#utility.yul\":3254:3280   */\n      swap1\n      pop\n        /* \"#utility.yul\":3326:3335   */\n      dup2\n        /* \"#utility.yul\":3320:3324   */\n      dup2\n        /* \"#utility.yul\":3316:3336   */\n      sub\n        /* \"#utility.yul\":3312:3313   */\n      0x00\n        /* \"#utility.yul\":3301:3310   */\n      dup4\n        /* \"#utility.yul\":3297:3314   */\n      add\n        /* \"#utility.yul\":3290:3337   */\n      mstore\n        /* \"#utility.yul\":3354:3485   */\n      tag_114\n        /* \"#utility.yul\":3480:3484   */\n      dup2\n        /* \"#utility.yul\":3354:3485   */\n      tag_91\n      jump\t// in\n    tag_114:\n        /* \"#utility.yul\":3346:3485   */\n      swap1\n      pop\n        /* \"#utility.yul\":3073:3492   */\n      swap2\n      swap1\n      pop\n      jump\t// out\n        /* \"#utility.yul\":3498:3917   */\n    tag_40:\n        /* \"#utility.yul\":3664:3668   */\n      0x00\n        /* \"#utility.yul\":3702:3704   */\n      0x20\n        /* \"#utility.yul\":3691:3700   */\n      dup3\n        /* \"#utility.yul\":3687:3705   */\n      add\n        /* \"#utility.yul\":3679:3705   */\n      swap1\n      pop\n        /* \"#utility.yul\":3751:3760   */\n      dup2\n        /* \"#utility.yul\":3745:3749   */\n      dup2\n        /* \"#utility.yul\":3741:3761   */\n      sub\n        /* \"#utility.yul\":3737:3738   */\n      0x00\n        /* \"#utility.yul\":3726:3735   */\n      dup4\n        /* \"#utility.yul\":3722:3739   */\n      add\n        /* \"#utility.yul\":3715:3762   */\n      mstore\n        /* \"#utility.yul\":3779:3910   */\n      tag_116\n        /* \"#utility.yul\":3905:3909   */\n      dup2\n        /* \"#utility.yul\":3779:3910   */\n      tag_96\n      jump\t// in\n    tag_116:\n        /* \"#utility.yul\":3771:3910   */\n      swap1\n      pop\n        /* \"#utility.yul\":3498:3917   */\n      swap2\n      swap1\n      pop\n      jump\t// out\n        /* \"#utility.yul\":3923:4145   */\n    tag_14:\n        /* \"#utility.yul\":4016:4020   */\n      0x00\n        /* \"#utility.yul\":4054:4056   */\n      0x20\n        /* \"#utility.yul\":4043:4052   */\n      dup3\n        /* \"#utility.yul\":4039:4057   */\n      add\n        /* \"#utility.yul\":4031:4057   */\n      swap1\n      pop\n        /* \"#utility.yul\":4067:4138   */\n      tag_118\n        /* \"#utility.yul\":4135:4136   */\n      0x00\n        /* \"#utility.yul\":4124:4133   */\n      dup4\n        /* \"#utility.yul\":4120:4137   */\n      add\n        /* \"#utility.yul\":4111:4117   */\n      dup5\n        /* \"#utility.yul\":4067:4138   */\n      tag_101\n      jump\t// in\n    tag_118:\n        /* \"#utility.yul\":3923:4145   */\n      swap3\n      swap2\n      pop\n      pop\n      jump\t// out\n        /* \"#utility.yul\":4151:4365   */\n    tag_58:\n        /* \"#utility.yul\":4240:4244   */\n      0x00\n        /* \"#utility.yul\":4278:4280   */\n      0x20\n        /* \"#utility.yul\":4267:4276   */\n      dup3\n        /* \"#utility.yul\":4263:4281   */\n      add\n        /* \"#utility.yul\":4255:4281   */\n      swap1\n      pop\n        /* \"#utility.yul\":4291:4358   */\n      tag_120\n        /* \"#utility.yul\":4355:4356   */\n      0x00\n        /* \"#utility.yul\":4344:4353   */\n      dup4\n        /* \"#utility.yul\":4340:4357   */\n      add\n        /* \"#utility.yul\":4331:4337   */\n      dup5\n        /* \"#utility.yul\":4291:4358   */\n      tag_105\n      jump\t// in\n    tag_120:\n        /* \"#utility.yul\":4151:4365   */\n      swap3\n      swap2\n      pop\n      pop\n      jump\t// out\n        /* \"#utility.yul\":4452:4621   */\n    tag_88:\n        /* \"#utility.yul\":4536:4547   */\n      0x00\n        /* \"#utility.yul\":4570:4576   */\n      dup3\n        /* \"#utility.yul\":4565:4568   */\n      dup3\n        /* \"#utility.yul\":4558:4577   */\n      mstore\n        /* \"#utility.yul\":4610:4614   */\n      0x20\n        /* \"#utility.yul\":4605:4608   */\n      dup3\n        /* \"#utility.yul\":4601:4615   */\n      add\n        /* \"#utility.yul\":4586:4615   */\n      swap1\n      pop\n        /* \"#utility.yul\":4452:4621   */\n      swap3\n      swap2\n      pop\n      pop\n      jump\t// out\n        /* \"#utility.yul\":4627:4932   */\n    tag_61:\n        /* \"#utility.yul\":4667:4670   */\n      0x00\n        /* \"#utility.yul\":4686:4706   */\n      tag_125\n        /* \"#utility.yul\":4704:4705   */\n      dup3\n        /* \"#utility.yul\":4686:4706   */\n      tag_104\n      jump\t// in\n    tag_125:\n        /* \"#utility.yul\":4681:4706   */\n      swap2\n      pop\n        /* \"#utility.yul\":4720:4740   */\n      tag_126\n        /* \"#utility.yul\":4738:4739   */\n      dup4\n        /* \"#utility.yul\":4720:4740   */\n      tag_104\n      jump\t// in\n    tag_126:\n        /* \"#utility.yul\":4715:4740   */\n      swap3\n      pop\n        /* \"#utility.yul\":4874:4875   */\n      dup3\n        /* \"#utility.yul\":4806:4872   */\n      0xffffffffffffffffffffffffffffffffffffffffffffffffffffffffffffffff\n        /* \"#utility.yul\":4802:4876   */\n      sub\n        /* \"#utility.yul\":4799:4800   */\n      dup3\n        /* \"#utility.yul\":4796:4877   */\n      gt\n        /* \"#utility.yul\":4793:4900   */\n      iszero\n      tag_127\n      jumpi\n        /* \"#utility.yul\":4880:4898   */\n      tag_128\n      tag_129\n      jump\t// in\n    tag_128:\n        /* \"#utility.yul\":4793:4900   */\n    tag_127:\n        /* \"#utility.yul\":4924:4925   */\n      dup3\n        /* \"#utility.yul\":4921:4922   */\n      dup3\n        /* \"#utility.yul\":4917:4926   */\n      add\n        /* \"#utility.yul\":4910:4926   */\n      swap1\n      pop\n        /* \"#utility.yul\":4627:4932   */\n      swap3\n      swap2\n      pop\n      pop\n      jump\t// out\n        /* \"#utility.yul\":4938:5034   */\n    tag_130:\n        /* \"#utility.yul\":4975:4982   */\n      0x00\n        /* \"#utility.yul\":5004:5028   */\n      tag_132\n        /* \"#utility.yul\":5022:5027   */\n      dup3\n        /* \"#utility.yul\":5004:5028   */\n      tag_133\n      jump\t// in\n    tag_132:\n        /* \"#utility.yul\":4993:5028   */\n      swap1\n      pop\n        /* \"#utility.yul\":4938:5034   */\n      swap2\n      swap1\n      pop\n      jump\t// out\n        /* \"#utility.yul\":5040:5130   */\n    tag_84:\n        /* \"#utility.yul\":5074:5081   */\n      0x00\n        /* \"#utility.yul\":5117:5122   */\n      dup2\n        /* \"#utility.yul\":5110:5123   */\n      iszero\n        /* \"#utility.yul\":5103:5124   */\n      iszero\n        /* \"#utility.yul\":5092:5124   */\n      swap1\n      pop\n        /* \"#utility.yul\":5040:5130   */\n      swap2\n      swap1\n      pop\n      jump\t// out\n        /* \"#utility.yul\":5136:5262   */\n    tag_133:\n        /* \"#utility.yul\":5173:5180   */\n      0x00\n        /* \"#utility.yul\":5213:5255   */\n      0xffffffffffffffffffffffffffffffffffffffff\n        /* \"#utility.yul\":5206:5211   */\n      dup3\n        /* \"#utility.yul\":5202:5256   */\n      and\n        /* \"#utility.yul\":5191:5256   */\n      swap1\n      pop\n        /* \"#utility.yul\":5136:5262   */\n      swap2\n      swap1\n      pop\n      jump\t// out\n        /* \"#utility.yul\":5268:5345   */\n    tag_104:\n        /* \"#utility.yul\":5305:5312   */\n      0x00\n        /* \"#utility.yul\":5334:5339   */\n      dup2\n        /* \"#utility.yul\":5323:5339   */\n      swap1\n      pop\n        /* \"#utility.yul\":5268:5345   */\n      swap2\n      swap1\n      pop\n      jump\t// out\n        /* \"#utility.yul\":5351:5437   */\n    tag_108:\n        /* \"#utility.yul\":5386:5393   */\n      0x00\n        /* \"#utility.yul\":5426:5430   */\n      0xff\n        /* \"#utility.yul\":5419:5424   */\n      dup3\n        /* \"#utility.yul\":5415:5431   */\n      and\n        /* \"#utility.yul\":5404:5431   */\n      swap1\n      pop\n        /* \"#utility.yul\":5351:5437   */\n      swap2\n      swap1\n      pop\n      jump\t// out\n        /* \"#utility.yul\":5443:5676   */\n    tag_50:\n        /* \"#utility.yul\":5482:5485   */\n      0x00\n        /* \"#utility.yul\":5505:5529   */\n      tag_139\n        /* \"#utility.yul\":5523:5528   */\n      dup3\n        /* \"#utility.yul\":5505:5529   */\n      tag_104\n      jump\t// in\n    tag_139:\n        /* \"#utility.yul\":5496:5529   */\n      swap2\n      pop\n        /* \"#utility.yul\":5551:5617   */\n      0xffffffffffffffffffffffffffffffffffffffffffffffffffffffffffffffff\n        /* \"#utility.yul\":5544:5549   */\n      dup3\n        /* \"#utility.yul\":5541:5618   */\n      eq\n        /* \"#utility.yul\":5538:5641   */\n      iszero\n      tag_140\n      jumpi\n        /* \"#utility.yul\":5621:5639   */\n      tag_141\n      tag_129\n      jump\t// in\n    tag_141:\n        /* \"#utility.yul\":5538:5641   */\n    tag_140:\n        /* \"#utility.yul\":5668:5669   */\n      0x01\n        /* \"#utility.yul\":5661:5666   */\n      dup3\n        /* \"#utility.yul\":5657:5670   */\n      add\n        /* \"#utility.yul\":5650:5670   */\n      swap1\n      pop\n        /* \"#utility.yul\":5443:5676   */\n      swap2\n      swap1\n      pop\n      jump\t// out\n        /* \"#utility.yul\":5682:5862   */\n    tag_129:\n        /* \"#utility.yul\":5730:5807   */\n      0x4e487b7100000000000000000000000000000000000000000000000000000000\n        /* \"#utility.yul\":5727:5728   */\n      0x00\n        /* \"#utility.yul\":5720:5808   */\n      mstore\n        /* \"#utility.yul\":5827:5831   */\n      0x11\n        /* \"#utility.yul\":5824:5825   */\n      0x04\n        /* \"#utility.yul\":5817:5832   */\n      mstore\n        /* \"#utility.yul\":5851:5855   */\n      0x24\n        /* \"#utility.yul\":5848:5849   */\n      0x00\n        /* \"#utility.yul\":5841:5856   */\n      revert\n        /* \"#utility.yul\":5991:6108   */\n    tag_75:\n        /* \"#utility.yul\":6100:6101   */\n      0x00\n        /* \"#utility.yul\":6097:6098   */\n      dup1\n        /* \"#utility.yul\":6090:6102   */\n      revert\n        /* \"#utility.yul\":6114:6281   */\n    tag_90:\n        /* \"#utility.yul\":6254:6273   */\n      0x496e76616c69642070726f706f73616c2e000000000000000000000000000000\n        /* \"#utility.yul\":6250:6251   */\n      0x00\n        /* \"#utility.yul\":6242:6248   */\n      dup3\n        /* \"#utility.yul\":6238:6252   */\n      add\n        /* \"#utility.yul\":6231:6274   */\n      mstore\n        /* \"#utility.yul\":6114:6281   */\n      pop\n      jump\t// out\n        /* \"#utility.yul\":6287:6455   */\n    tag_95:\n        /* \"#utility.yul\":6427:6447   */\n      0x43616e6e6f7420766f746520616761696e2e0000000000000000000000000000\n        /* \"#utility.yul\":6423:6424   */\n      0x00\n        /* \"#utility.yul\":6415:6421   */\n      dup3\n        /* \"#utility.yul\":6411:6425   */\n      add\n        /* \"#utility.yul\":6404:6448   */\n      mstore\n        /* \"#utility.yul\":6287:6455   */\n      pop\n      jump\t// out\n        /* \"#utility.yul\":6461:6624   */\n    tag_100:\n        /* \"#utility.yul\":6601:6616   */\n      0x566f746520657870697265642e00000000000000000000000000000000000000\n        /* \"#utility.yul\":6597:6598   */\n      0x00\n        /* \"#utility.yul\":6589:6595   */\n      dup3\n        /* \"#utility.yul\":6585:6599   */\n      add\n        /* \"#utility.yul\":6578:6617   */\n      mstore\n        /* \"#utility.yul\":6461:6624   */\n      pop\n      jump\t// out\n        /* \"#utility.yul\":6630:6752   */\n    tag_67:\n        /* \"#utility.yul\":6703:6727   */\n      tag_150\n        /* \"#utility.yul\":6721:6726   */\n      dup2\n        /* \"#utility.yul\":6703:6727   */\n      tag_130\n      jump\t// in\n    tag_150:\n        /* \"#utility.yul\":6696:6701   */\n      dup2\n        /* \"#utility.yul\":6693:6728   */\n      eq\n        /* \"#utility.yul\":6683:6746   */\n      tag_151\n      jumpi\n        /* \"#utility.yul\":6742:6743   */\n      0x00\n        /* \"#utility.yul\":6739:6740   */\n      dup1\n        /* \"#utility.yul\":6732:6744   */\n      revert\n        /* \"#utility.yul\":6683:6746   */\n    tag_151:\n        /* \"#utility.yul\":6630:6752   */\n      pop\n      jump\t// out\n        /* \"#utility.yul\":6758:6876   */\n    tag_71:\n        /* \"#utility.yul\":6829:6851   */\n      tag_153\n        /* \"#utility.yul\":6845:6850   */\n      dup2\n        /* \"#utility.yul\":6829:6851   */\n      tag_108\n      jump\t// in\n    tag_153:\n        /* \"#utility.yul\":6822:6827   */\n      dup2\n        /* \"#utility.yul\":6819:6852   */\n      eq\n        /* \"#utility.yul\":6809:6870   */\n      tag_154\n      jumpi\n        /* \"#utility.yul\":6866:6867   */\n      0x00\n        /* \"#utility.yul\":6863:6864   */\n      dup1\n        /* \"#utility.yul\":6856:6868   */\n      revert\n        /* \"#utility.yul\":6809:6870   */\n    tag_154:\n        /* \"#utility.yul\":6758:6876   */\n      pop\n      jump\t// out\n\n    auxdata: 0xa26469706673582212205a6fd5237571bc62ee28c1746b98555b4b10e23ff8e828c643f7ee7e2f99eb2a64736f6c63430008070033\n}\n",
				"bytecode": {
					"linkReferences": {},
					"object": "608060405234801561001057600080fd5b506040516108a13803806108a183398181016040528101906100329190610054565b80600181905550506100a7565b60008151905061004e81610090565b92915050565b60006020828403121561006a5761006961008b565b5b60006100788482850161003f565b91505092915050565b6000819050919050565b600080fd5b61009981610081565b81146100a457600080fd5b50565b6107eb806100b66000396000f3fe608060405234801561001057600080fd5b506004361061007d5760003560e01c8063aec2ccae1161005b578063aec2ccae146100dc578063b3f98adc1461010c578063e168c3ec14610128578063fc79c9d1146101465761007d565b80633197cbb6146100825780636bd4c024146100a05780639a59dd93146100be575b600080fd5b61008a610164565b604051610097919061059d565b60405180910390f35b6100a861016a565b6040516100b5919061059d565b60405180910390f35b6100c6610170565b6040516100d3919061059d565b60405180910390f35b6100f660048036038101906100f19190610432565b610176565b6040516101039190610522565b60405180910390f35b6101266004803603810190610121919061045f565b610196565b005b6101306103de565b60405161013d919061059d565b60405180910390f35b61014e610402565b60405161015b919061059d565b60405180910390f35b60015481565b60045481565b60025481565b60006020528060005260406000206000915054906101000a900460ff1681565b60015442106101da576040517f08c379a00000000000000000000000000000000000000000000000000000000081526004016101d19061057d565b60405180910390fd5b60018160ff16101580156101f2575060038160ff1611155b610231576040517f08c379a00000000000000000000000000000000000000000000000000000000081526004016102289061053d565b60405180910390fd5b6000803373ffffffffffffffffffffffffffffffffffffffff1673ffffffffffffffffffffffffffffffffffffffff16815260200190815260200160002060009054906101000a900460ff16156102bd576040517f08c379a00000000000000000000000000000000000000000000000000000000081526004016102b49061055d565b60405180910390fd5b60016000803373ffffffffffffffffffffffffffffffffffffffff1673ffffffffffffffffffffffffffffffffffffffff16815260200190815260200160002060006101000a81548160ff02191690831515021790555060018160ff16141561033d57600260008154809291906103339061068f565b919050555061038d565b60028160ff161415610366576003600081548092919061035c9061068f565b919050555061038c565b60038160ff16141561038b57600460008154809291906103859061068f565b91905055505b5b5b3373ffffffffffffffffffffffffffffffffffffffff167f14075e33dffdc00c1fcaf75d0f86d667170be57fb566b12b41b499e5fa53b125826040516103d391906105b8565b60405180910390a250565b60006004546003546002546103f391906105e4565b6103fd91906105e4565b905090565b60035481565b60008135905061041781610787565b92915050565b60008135905061042c8161079e565b92915050565b60006020828403121561044857610447610707565b5b600061045684828501610408565b91505092915050565b60006020828403121561047557610474610707565b5b60006104838482850161041d565b91505092915050565b6104958161064c565b82525050565b60006104a86011836105d3565b91506104b38261070c565b602082019050919050565b60006104cb6012836105d3565b91506104d682610735565b602082019050919050565b60006104ee600d836105d3565b91506104f98261075e565b602082019050919050565b61050d81610678565b82525050565b61051c81610682565b82525050565b6000602082019050610537600083018461048c565b92915050565b600060208201905081810360008301526105568161049b565b9050919050565b60006020820190508181036000830152610576816104be565b9050919050565b60006020820190508181036000830152610596816104e1565b9050919050565b60006020820190506105b26000830184610504565b92915050565b60006020820190506105cd6000830184610513565b92915050565b600082825260208201905092915050565b60006105ef82610678565b91506105fa83610678565b9250827fffffffffffffffffffffffffffffffffffffffffffffffffffffffffffffffff0382111561062f5761062e6106d8565b5b828201905092915050565b600061064582610658565b9050919050565b60008115159050919050565b600073ffffffffffffffffffffffffffffffffffffffff82169050919050565b6000819050919050565b600060ff82169050919050565b600061069a82610678565b91507fffffffffffffffffffffffffffffffffffffffffffffffffffffffffffffffff8214156106cd576106cc6106d8565b5b600182019050919050565b7f4e487b7100000000000000000000000000000000000000000000000000000000600052601160045260246000fd5b600080fd5b7f496e76616c69642070726f706f73616c2e000000000000000000000000000000600082015250565b7f43616e6e6f7420766f746520616761696e2e0000000000000000000000000000600082015250565b7f566f746520657870697265642e00000000000000000000000000000000000000600082015250565b6107908161063a565b811461079b57600080fd5b50565b6107a781610682565b81146107b257600080fd5b5056fea26469706673582212205a6fd5237571bc62ee28c1746b98555b4b10e23ff8e828c643f7ee7e2f99eb2a64736f6c63430008070033",
					"opcodes": "PUSH1 0x80 PUSH1 0x40 MSTORE CALLVALUE DUP1 ISZERO PUSH2 0x10 JUMPI PUSH1 0x0 DUP1 REVERT JUMPDEST POP PUSH1 0x40 MLOAD PUSH2 0x8A1 CODESIZE SUB DUP1 PUSH2 0x8A1 DUP4 CODECOPY DUP2 DUP2 ADD PUSH1 0x40 MSTORE DUP2 ADD SWAP1 PUSH2 0x32 SWAP2 SWAP1 PUSH2 0x54 JUMP JUMPDEST DUP1 PUSH1 0x1 DUP2 SWAP1 SSTORE POP POP PUSH2 0xA7 JUMP JUMPDEST PUSH1 0x0 DUP2 MLOAD SWAP1 POP PUSH2 0x4E DUP2 PUSH2 0x90 JUMP JUMPDEST SWAP3 SWAP2 POP POP JUMP JUMPDEST PUSH1 0x0 PUSH1 0x20 DUP3 DUP5 SUB SLT ISZERO PUSH2 0x6A JUMPI PUSH2 0x69 PUSH2 0x8B JUMP JUMPDEST JUMPDEST PUSH1 0x0 PUSH2 0x78 DUP5 DUP3 DUP6 ADD PUSH2 0x3F JUMP JUMPDEST SWAP2 POP POP SWAP3 SWAP2 POP POP JUMP JUMPDEST PUSH1 0x0 DUP2 SWAP1 POP SWAP2 SWAP1 POP JUMP JUMPDEST PUSH1 0x0 DUP1 REVERT JUMPDEST PUSH2 0x99 DUP2 PUSH2 0x81 JUMP JUMPDEST DUP2 EQ PUSH2 0xA4 JUMPI PUSH1 0x0 DUP1 REVERT JUMPDEST POP JUMP JUMPDEST PUSH2 0x7EB DUP1 PUSH2 0xB6 PUSH1 0x0 CODECOPY PUSH1 0x0 RETURN INVALID PUSH1 0x80 PUSH1 0x40 MSTORE CALLVALUE DUP1 ISZERO PUSH2 0x10 JUMPI PUSH1 0x0 DUP1 REVERT JUMPDEST POP PUSH1 0x4 CALLDATASIZE LT PUSH2 0x7D JUMPI PUSH1 0x0 CALLDATALOAD PUSH1 0xE0 SHR DUP1 PUSH4 0xAEC2CCAE GT PUSH2 0x5B JUMPI DUP1 PUSH4 0xAEC2CCAE EQ PUSH2 0xDC JUMPI DUP1 PUSH4 0xB3F98ADC EQ PUSH2 0x10C JUMPI DUP1 PUSH4 0xE168C3EC EQ PUSH2 0x128 JUMPI DUP1 PUSH4 0xFC79C9D1 EQ PUSH2 0x146 JUMPI PUSH2 0x7D JUMP JUMPDEST DUP1 PUSH4 0x3197CBB6 EQ PUSH2 0x82 JUMPI DUP1 PUSH4 0x6BD4C024 EQ PUSH2 0xA0 JUMPI DUP1 PUSH4 0x9A59DD93 EQ PUSH2 0xBE JUMPI JUMPDEST PUSH1 0x0 DUP1 REVERT JUMPDEST PUSH2 0x8A PUSH2 0x164 JUMP JUMPDEST PUSH1 0x40 MLOAD PUSH2 0x97 SWAP2 SWAP1 PUSH2 0x59D JUMP JUMPDEST PUSH1 0x40 MLOAD DUP1 SWAP2 SUB SWAP1 RETURN JUMPDEST PUSH2 0xA8 PUSH2 0x16A JUMP JUMPDEST PUSH1 0x40 MLOAD PUSH2 0xB5 SWAP2 SWAP1 PUSH2 0x59D JUMP JUMPDEST PUSH1 0x40 MLOAD DUP1 SWAP2 SUB SWAP1 RETURN JUMPDEST PUSH2 0xC6 PUSH2 0x170 JUMP JUMPDEST PUSH1 0x40 MLOAD PUSH2 0xD3 SWAP2 SWAP1 PUSH2 0x59D JUMP JUMPDEST PUSH1 0x40 MLOAD DUP1 SWAP2 SUB SWAP1 RETURN JUMPDEST PUSH2 0xF6 PUSH1 0x4 DUP1 CALLDATASIZE SUB DUP2 ADD SWAP1 PUSH2 0xF1 SWAP2 SWAP1 PUSH2 0x432 JUMP JUMPDEST PUSH2 0x176 JUMP JUMPDEST PUSH1 0x40 MLOAD PUSH2 0x103 SWAP2 SWAP1 PUSH2 0x522 JUMP JUMPDEST PUSH1 0x40 MLOAD DUP1 SWAP2 SUB SWAP1 RETURN JUMPDEST PUSH2 0x126 PUSH1 0x4 DUP1 CALLDATASIZE SUB DUP2 ADD SWAP1 PUSH2 0x121 SWAP2 SWAP1 PUSH2 0x45F JUMP JUMPDEST PUSH2 0x196 JUMP JUMPDEST STOP JUMPDEST PUSH2 0x130 PUSH2 0x3DE JUMP JUMPDEST PUSH1 0x40 MLOAD PUSH2 0x13D SWAP2 SWAP1 PUSH2 0x59D JUMP JUMPDEST PUSH1 0x40 MLOAD DUP1 SWAP2 SUB SWAP1 RETURN JUMPDEST PUSH2 0x14E PUSH2 0x402 JUMP JUMPDEST PUSH1 0x40 MLOAD PUSH2 0x15B SWAP2 SWAP1 PUSH2 0x59D JUMP JUMPDEST PUSH1 0x40 MLOAD DUP1 SWAP2 SUB SWAP1 RETURN JUMPDEST PUSH1 0x1 SLOAD DUP2 JUMP JUMPDEST PUSH1 0x4 SLOAD DUP2 JUMP JUMPDEST PUSH1 0x2 SLOAD DUP2 JUMP JUMPDEST PUSH1 0x0 PUSH1 0x20 MSTORE DUP1 PUSH1 0x0 MSTORE PUSH1 0x40 PUSH1 0x0 KECCAK256 PUSH1 0x0 SWAP2 POP SLOAD SWAP1 PUSH2 0x100 EXP SWAP1 DIV PUSH1 0xFF AND DUP2 JUMP JUMPDEST PUSH1 0x1 SLOAD TIMESTAMP LT PUSH2 0x1DA JUMPI PUSH1 0x40 MLOAD PUSH32 0x8C379A000000000000000000000000000000000000000000000000000000000 DUP2 MSTORE PUSH1 0x4 ADD PUSH2 0x1D1 SWAP1 PUSH2 0x57D JUMP JUMPDEST PUSH1 0x40 MLOAD DUP1 SWAP2 SUB SWAP1 REVERT JUMPDEST PUSH1 0x1 DUP2 PUSH1 0xFF AND LT ISZERO DUP1 ISZERO PUSH2 0x1F2 JUMPI POP PUSH1 0x3 DUP2 PUSH1 0xFF AND GT ISZERO JUMPDEST PUSH2 0x231 JUMPI PUSH1 0x40 MLOAD PUSH32 0x8C379A000000000000000000000000000000000000000000000000000000000 DUP2 MSTORE PUSH1 0x4 ADD PUSH2 0x228 SWAP1 PUSH2 0x53D JUMP JUMPDEST PUSH1 0x40 MLOAD DUP1 SWAP2 SUB SWAP1 REVERT JUMPDEST PUSH1 0x0 DUP1 CALLER PUSH20 0xFFFFFFFFFFFFFFFFFFFFFFFFFFFFFFFFFFFFFFFF AND PUSH20 0xFFFFFFFFFFFFFFFFFFFFFFFFFFFFFFFFFFFFFFFF AND DUP2 MSTORE PUSH1 0x20 ADD SWAP1 DUP2 MSTORE PUSH1 0x20 ADD PUSH1 0x0 KECCAK256 PUSH1 0x0 SWAP1 SLOAD SWAP1 PUSH2 0x100 EXP SWAP1 DIV PUSH1 0xFF AND ISZERO PUSH2 0x2BD JUMPI PUSH1 0x40 MLOAD PUSH32 0x8C379A000000000000000000000000000000000000000000000000000000000 DUP2 MSTORE PUSH1 0x4 ADD PUSH2 0x2B4 SWAP1 PUSH2 0x55D JUMP JUMPDEST PUSH1 0x40 MLOAD DUP1 SWAP2 SUB SWAP1 REVERT JUMPDEST PUSH1 0x1 PUSH1 0x0 DUP1 CALLER PUSH20 0xFFFFFFFFFFFFFFFFFFFFFFFFFFFFFFFFFFFFFFFF AND PUSH20 0xFFFFFFFFFFFFFFFFFFFFFFFFFFFFFFFFFFFFFFFF AND DUP2 MSTORE PUSH1 0x20 ADD SWAP1 DUP2 MSTORE PUSH1 0x20 ADD PUSH1 0x0 KECCAK256 PUSH1 0x0 PUSH2 0x100 EXP DUP2 SLOAD DUP2 PUSH1 0xFF MUL NOT AND SWAP1 DUP4 ISZERO ISZERO MUL OR SWAP1 SSTORE POP PUSH1 0x1 DUP2 PUSH1 0xFF AND EQ ISZERO PUSH2 0x33D JUMPI PUSH1 0x2 PUSH1 0x0 DUP2 SLOAD DUP1 SWAP3 SWAP2 SWAP1 PUSH2 0x333 SWAP1 PUSH2 0x68F JUMP JUMPDEST SWAP2 SWAP1 POP SSTORE POP PUSH2 0x38D JUMP JUMPDEST PUSH1 0x2 DUP2 PUSH1 0xFF AND EQ ISZERO PUSH2 0x366 JUMPI PUSH1 0x3 PUSH1 0x0 DUP2 SLOAD DUP1 SWAP3 SWAP2 SWAP1 PUSH2 0x35C SWAP1 PUSH2 0x68F JUMP JUMPDEST SWAP2 SWAP1 POP SSTORE POP PUSH2 0x38C JUMP JUMPDEST PUSH1 0x3 DUP2 PUSH1 0xFF AND EQ ISZERO PUSH2 0x38B JUMPI PUSH1 0x4 PUSH1 0x0 DUP2 SLOAD DUP1 SWAP3 SWAP2 SWAP1 PUSH2 0x385 SWAP1 PUSH2 0x68F JUMP JUMPDEST SWAP2 SWAP1 POP SSTORE POP JUMPDEST JUMPDEST JUMPDEST CALLER PUSH20 0xFFFFFFFFFFFFFFFFFFFFFFFFFFFFFFFFFFFFFFFF AND PUSH32 0x14075E33DFFDC00C1FCAF75D0F86D667170BE57FB566B12B41B499E5FA53B125 DUP3 PUSH1 0x40 MLOAD PUSH2 0x3D3 SWAP2 SWAP1 PUSH2 0x5B8 JUMP JUMPDEST PUSH1 0x40 MLOAD DUP1 SWAP2 SUB SWAP1 LOG2 POP JUMP JUMPDEST PUSH1 0x0 PUSH1 0x4 SLOAD PUSH1 0x3 SLOAD PUSH1 0x2 SLOAD PUSH2 0x3F3 SWAP2 SWAP1 PUSH2 0x5E4 JUMP JUMPDEST PUSH2 0x3FD SWAP2 SWAP1 PUSH2 0x5E4 JUMP JUMPDEST SWAP1 POP SWAP1 JUMP JUMPDEST PUSH1 0x3 SLOAD DUP2 JUMP JUMPDEST PUSH1 0x0 DUP2 CALLDATALOAD SWAP1 POP PUSH2 0x417 DUP2 PUSH2 0x787 JUMP JUMPDEST SWAP3 SWAP2 POP POP JUMP JUMPDEST PUSH1 0x0 DUP2 CALLDATALOAD SWAP1 POP PUSH2 0x42C DUP2 PUSH2 0x79E JUMP JUMPDEST SWAP3 SWAP2 POP POP JUMP JUMPDEST PUSH1 0x0 PUSH1 0x20 DUP3 DUP5 SUB SLT ISZERO PUSH2 0x448 JUMPI PUSH2 0x447 PUSH2 0x707 JUMP JUMPDEST JUMPDEST PUSH1 0x0 PUSH2 0x456 DUP5 DUP3 DUP6 ADD PUSH2 0x408 JUMP JUMPDEST SWAP2 POP POP SWAP3 SWAP2 POP POP JUMP JUMPDEST PUSH1 0x0 PUSH1 0x20 DUP3 DUP5 SUB SLT ISZERO PUSH2 0x475 JUMPI PUSH2 0x474 PUSH2 0x707 JUMP JUMPDEST JUMPDEST PUSH1 0x0 PUSH2 0x483 DUP5 DUP3 DUP6 ADD PUSH2 0x41D JUMP JUMPDEST SWAP2 POP POP SWAP3 SWAP2 POP POP JUMP JUMPDEST PUSH2 0x495 DUP2 PUSH2 0x64C JUMP JUMPDEST DUP3 MSTORE POP POP JUMP JUMPDEST PUSH1 0x0 PUSH2 0x4A8 PUSH1 0x11 DUP4 PUSH2 0x5D3 JUMP JUMPDEST SWAP2 POP PUSH2 0x4B3 DUP3 PUSH2 0x70C JUMP JUMPDEST PUSH1 0x20 DUP3 ADD SWAP1 POP SWAP2 SWAP1 POP JUMP JUMPDEST PUSH1 0x0 PUSH2 0x4CB PUSH1 0x12 DUP4 PUSH2 0x5D3 JUMP JUMPDEST SWAP2 POP PUSH2 0x4D6 DUP3 PUSH2 0x735 JUMP JUMPDEST PUSH1 0x20 DUP3 ADD SWAP1 POP SWAP2 SWAP1 POP JUMP JUMPDEST PUSH1 0x0 PUSH2 0x4EE PUSH1 0xD DUP4 PUSH2 0x5D3 JUMP JUMPDEST SWAP2 POP PUSH2 0x4F9 DUP3 PUSH2 0x75E JUMP JUMPDEST PUSH1 0x20 DUP3 ADD SWAP1 POP SWAP2 SWAP1 POP JUMP JUMPDEST PUSH2 0x50D DUP2 PUSH2 0x678 JUMP JUMPDEST DUP3 MSTORE POP POP JUMP JUMPDEST PUSH2 0x51C DUP2 PUSH2 0x682 JUMP JUMPDEST DUP3 MSTORE POP POP JUMP JUMPDEST PUSH1 0x0 PUSH1 0x20 DUP3 ADD SWAP1 POP PUSH2 0x537 PUSH1 0x0 DUP4 ADD DUP5 PUSH2 0x48C JUMP JUMPDEST SWAP3 SWAP2 POP POP JUMP JUMPDEST PUSH1 0x0 PUSH1 0x20 DUP3 ADD SWAP1 POP DUP2 DUP2 SUB PUSH1 0x0 DUP4 ADD MSTORE PUSH2 0x556 DUP2 PUSH2 0x49B JUMP JUMPDEST SWAP1 POP SWAP2 SWAP1 POP JUMP JUMPDEST PUSH1 0x0 PUSH1 0x20 DUP3 ADD SWAP1 POP DUP2 DUP2 SUB PUSH1 0x0 DUP4 ADD MSTORE PUSH2 0x576 DUP2 PUSH2 0x4BE JUMP JUMPDEST SWAP1 POP SWAP2 SWAP1 POP JUMP JUMPDEST PUSH1 0x0 PUSH1 0x20 DUP3 ADD SWAP1 POP DUP2 DUP2 SUB PUSH1 0x0 DUP4 ADD MSTORE PUSH2 0x596 DUP2 PUSH2 0x4E1 JUMP JUMPDEST SWAP1 POP SWAP2 SWAP1 POP JUMP JUMPDEST PUSH1 0x0 PUSH1 0x20 DUP3 ADD SWAP1 POP PUSH2 0x5B2 PUSH1 0x0 DUP4 ADD DUP5 PUSH2 0x504 JUMP JUMPDEST SWAP3 SWAP2 POP POP JUMP JUMPDEST PUSH1 0x0 PUSH1 0x20 DUP3 ADD SWAP1 POP PUSH2 0x5CD PUSH1 0x0 DUP4 ADD DUP5 PUSH2 0x513 JUMP JUMPDEST SWAP3 SWAP2 POP POP JUMP JUMPDEST PUSH1 0x0 DUP3 DUP3 MSTORE PUSH1 0x20 DUP3 ADD SWAP1 POP SWAP3 SWAP2 POP POP JUMP JUMPDEST PUSH1 0x0 PUSH2 0x5EF DUP3 PUSH2 0x678 JUMP JUMPDEST SWAP2 POP PUSH2 0x5FA DUP4 PUSH2 0x678 JUMP JUMPDEST SWAP3 POP DUP3 PUSH32 0xFFFFFFFFFFFFFFFFFFFFFFFFFFFFFFFFFFFFFFFFFFFFFFFFFFFFFFFFFFFFFFFF SUB DUP3 GT ISZERO PUSH2 0x62F JUMPI PUSH2 0x62E PUSH2 0x6D8 JUMP JUMPDEST JUMPDEST DUP3 DUP3 ADD SWAP1 POP SWAP3 SWAP2 POP POP JUMP JUMPDEST PUSH1 0x0 PUSH2 0x645 DUP3 PUSH2 0x658 JUMP JUMPDEST SWAP1 POP SWAP2 SWAP1 POP JUMP JUMPDEST PUSH1 0x0 DUP2 ISZERO ISZERO SWAP1 POP SWAP2 SWAP1 POP JUMP JUMPDEST PUSH1 0x0 PUSH20 0xFFFFFFFFFFFFFFFFFFFFFFFFFFFFFFFFFFFFFFFF DUP3 AND SWAP1 POP SWAP2 SWAP1 POP JUMP JUMPDEST PUSH1 0x0 DUP2 SWAP1 POP SWAP2 SWAP1 POP JUMP JUMPDEST PUSH1 0x0 PUSH1 0xFF DUP3 AND SWAP1 POP SWAP2 SWAP1 POP JUMP JUMPDEST PUSH1 0x0 PUSH2 0x69A DUP3 PUSH2 0x678 JUMP JUMPDEST SWAP2 POP PUSH32 0xFFFFFFFFFFFFFFFFFFFFFFFFFFFFFFFFFFFFFFFFFFFFFFFFFFFFFFFFFFFFFFFF DUP3 EQ ISZERO PUSH2 0x6CD JUMPI PUSH2 0x6CC PUSH2 0x6D8 JUMP JUMPDEST JUMPDEST PUSH1 0x1 DUP3 ADD SWAP1 POP SWAP2 SWAP1 POP JUMP JUMPDEST PUSH32 0x4E487B7100000000000000000000000000000000000000000000000000000000 PUSH1 0x0 MSTORE PUSH1 0x11 PUSH1 0x4 MSTORE PUSH1 0x24 PUSH1 0x0 REVERT JUMPDEST PUSH1 0x0 DUP1 REVERT JUMPDEST PUSH32 0x496E76616C69642070726F706F73616C2E000000000000000000000000000000 PUSH1 0x0 DUP3 ADD MSTORE POP JUMP JUMPDEST PUSH32 0x43616E6E6F7420766F746520616761696E2E0000000000000000000000000000 PUSH1 0x0 DUP3 ADD MSTORE POP JUMP JUMPDEST PUSH32 0x566F746520657870697265642E00000000000000000000000000000000000000 PUSH1 0x0 DUP3 ADD MSTORE POP JUMP JUMPDEST PUSH2 0x790 DUP2 PUSH2 0x63A JUMP JUMPDEST DUP2 EQ PUSH2 0x79B JUMPI PUSH1 0x0 DUP1 REVERT JUMPDEST POP JUMP JUMPDEST PUSH2 0x7A7 DUP2 PUSH2 0x682 JUMP JUMPDEST DUP2 EQ PUSH2 0x7B2 JUMPI PUSH1 0x0 DUP1 REVERT JUMPDEST POP JUMP INVALID LOG2 PUSH5 0x6970667358 0x22 SLT KECCAK256 GAS PUSH16 0xD5237571BC62EE28C1746B98555B4B10 0xE2 EXTCODEHASH 0xF8 0xE8 0x28 0xC6 NUMBER 0xF7 0xEE PUSH31 0x2F99EB2A64736F6C6343000807003300000000000000000000000000000000 "
				},
				"gasEstimates": {
					"creation": {
						"codeDepositCost": "405400",
						"executionCost": "infinite",
						"totalCost": "infinite"
					},
					"external": {
						"endTime()": "2430",
						"proposalA()": "2474",
						"proposalB()": "2495",
						"proposalC()": "2452",
						"vote(uint8)": "infinite",
						"voted(address)": "2845",
						"votes()": "infinite"
					}
				},
				"methodIdentifiers": {
					"endTime()": "3197cbb6",
					"proposalA()": "9a59dd93",
					"proposalB()": "fc79c9d1",
					"proposalC()": "6bd4c024",
					"vote(uint8)": "b3f98adc",
					"voted(address)": "aec2ccae",
					"votes()": "e168c3ec"
				}
			},
			"storageLayout": {
				"storage": [
					{
						"astId": 11,
						"contract": "contracts/SixentsVote.sol:SixentsVote",
						"label": "voted",
						"offset": 0,
						"slot": "0",
						"type": "t_mapping(t_address,t_bool)"
					},
					{
						"astId": 13,
						"contract": "contracts/SixentsVote.sol:SixentsVote",
						"label": "endTime",
						"offset": 0,
						"slot": "1",
						"type": "t_uint256"
					},
					{
						"astId": 15,
						"contract": "contracts/SixentsVote.sol:SixentsVote",
						"label": "proposalA",
						"offset": 0,
						"slot": "2",
						"type": "t_uint256"
					},
					{
						"astId": 17,
						"contract": "contracts/SixentsVote.sol:SixentsVote",
						"label": "proposalB",
						"offset": 0,
						"slot": "3",
						"type": "t_uint256"
					},
					{
						"astId": 19,
						"contract": "contracts/SixentsVote.sol:SixentsVote",
						"label": "proposalC",
						"offset": 0,
						"slot": "4",
						"type": "t_uint256"
					}
				],
				"types": {
					"t_address": {
						"encoding": "inplace",
						"label": "address",
						"numberOfBytes": "20"
					},
					"t_bool": {
						"encoding": "inplace",
						"label": "bool",
						"numberOfBytes": "1"
					},
					"t_mapping(t_address,t_bool)": {
						"encoding": "mapping",
						"key": "t_address",
						"label": "mapping(address => bool)",
						"numberOfBytes": "32",
						"value": "t_bool"
					},
					"t_uint256": {
						"encoding": "inplace",
						"label": "uint256",
						"numberOfBytes": "32"
					}
				}
			},
			"userdoc": {
				"kind": "user",
				"methods": {},
				"version": 1
			}
		}
	}
}